:100000000C94DD020C9405030C9405030C94050379
:100010000C9405030C9405030C9405030C94050340
:100020000C9405030C9405030C9405030C94050330
:100030000C9405030C94D5030C9405030C94050350
:100040000C94440A0C9405030C9405030C940503CA
:100050000C9405030C9405030C9405030C94050300
:100060000C9405030C94050300000000003E5B4F58
:100070005B3E3E6B4F6B3E1C3E7C3E1C183C7E3C08
:10008000181C577D571C1C5E7F5E1C00183C180016
:10009000FFE7C3E7FF0018241800FFE7DBE7FF30A6
:1000A000483A060E2629792926407F050507407F14
:1000B00005253F5A3CE73C5A7F3E1C1C08081C1C87
:1000C0003E7F14227F22145F5F005F5F06097F017D
:1000D0007F006689956A606060606094A2FFA29468
:1000E00008047E040810207E201008082A1C080836
:1000F0001C2A08081E101010100C1E0C1E0C303884
:100100003E3830060E3E0E06000000000000005F84
:1001100000000007000700147F147F14242A7F2AA0
:100120001223130864623649562050000807030062
:10013000001C2241000041221C002A1C7F1C2A08AE
:10014000083E080800807030000808080808000011
:1001500060600020100804023E5149453E00427F85
:10016000400072494949462141494D331814127FD4
:100170001027454545393C4A494931412111090774
:100180003649494936464949291E000014000000F5
:1001900040340000000814224114141414140041C7
:1001A00022140802015909063E415D594E7C121184
:1001B000127C7F494949363E414141227F414141BC
:1001C0003E7F494949417F090909013E4141517337
:1001D0007F0808087F00417F41002040413F017FA8
:1001E000081422417F404040407F021C027F7F0470
:1001F00008107F3E4141413E7F090909063E4151B9
:10020000215E7F09192946264949493203017F01A8
:10021000033F4040403F1F2040201F3F4038403FA9
:10022000631408146303047804036159494D4300BF
:100230007F4141410204081020004141417F0402F6
:10024000010204404040404000030708002054548D
:1002500078407F284444383844444428384444286B
:100260007F385454541800087E090218A4A49C78BE
:100270007F0804047800447D40002040403D007F1A
:100280001028440000417F40007C047804787C08FA
:100290000404783844444438FC18242418182424CE
:1002A00018FC7C08040408485454542404043F44B3
:1002B000243C4040207C1C2040201C3C4030403CE2
:1002C00044281028444C9090907C4464544C440042
:1002D00008364100000077000000413608000201A6
:1002E0000204023C2623263C1EA1A161123A404092
:1002F000207A38545455592155557941225454780F
:1003000042215554784020545579400C1E527212A7
:100310003955555559395454545939555454580030
:1003200000457C410002457D420001457C407D1234
:1003300011127DF0282528F07C5455450020545496
:100340007C547C0A097F4932494949323A44444441
:100350003A324A4848303A4141217A3A424020787C
:10036000009DA0A07D3D4242423D3D4040403D3C7D
:1003700024FF2424487E4943662B2FFC2F2BFF09A2
:1003800029F620C0887E0903205454794100004496
:100390007D413048484A32384040227A007A0A0A81
:1003A000727D0D19317D2629292F282629292926F4
:1003B00030484D4020380808080808080808382F39
:1003C00010C8ACBA2F102834FA00007B00000814C3
:1003D0002A142222142A14085500550055AA55AA99
:1003E00055AAFF55FF55FF000000FF00101010FF39
:1003F00000141414FF001010FF00FF1010F010F094
:10040000141414FC001414F700FF0000FF00FF1484
:1004100014F404FC141417101F10101F101F1414D0
:10042000141F00101010F0000000001F101010101A
:100430001F10101010F010000000FF10101010100E
:1004400010101010FF10000000FF140000FF00FF4C
:1004500000001F10170000FC04F4141417101714E8
:1004600014F404F40000FF00F7141414141414140A
:10047000F700F7141414171410101F101F1414147D
:10048000F4141010F010F000001F101F0000001FE7
:1004900014000000FC140000F010F01010FF10FF1A
:1004A000141414FF141010101F00000000F010FFAF
:1004B000FFFFFFFFF0F0F0F0F0FFFFFF0000000093
:1004C00000FFFF0F0F0F0F0F3844443844FC4A4A17
:1004D0004A347E02020606027E027E0263554941CC
:1004E000633844443C04407E201E2006027E020203
:1004F00099A5E7A5991C2A492A1C4C7201724C3017
:100500004A4D4D303048784830BC625A463D3E49ED
:100510004949007E0101017E2A2A2A2A2A44445F91
:10052000444440514A444040444A51400000FF0185
:1005300003E080FF000008086B6B08361236243693
:10054000060F090F060000181800000010100030F8
:1005500040FF0101001F01011E00191D1712003C80
:100560003C3C3C00000000000000000800020100CC
:10057000000304070000000000000000010204085E
:1005800010204080010204081020010204081020FD
:100590000404040404040404020202020202030329
:1005A0000303030300000000250028002B000000C7
:1005B0000000240027002A00C50311241FBECFEF2E
:1005C000D8E0DEBFCDBF13E0A0E0B1E0E8EEF7E198
:1005D00002C005900D92A433B107D9F723E0A4E33C
:1005E000B3E001C01D92A836B207E1F715E0CAEBEF
:1005F000D5E004C02297FE010E94E90BC83BD10759
:10060000C9F70E94D50B0C94F20B0C94000080915A
:10061000340390913503892B39F481E090E0909375
:1006200035038093340304C01092350310923403D1
:10063000609134038DE00E94760B809106019091C9
:100640000701A0910801B091090162E0880F991F8C
:10065000AA1FBB1F6A95D1F7009721E0A207B10539
:1006600020F421E020935B0342C0009728E0A2071A
:10067000B10558F422E020935B0353E0B695A795AB
:10068000979587955A95D1F732C0009720E4A20735
:10069000B10558F423E020935B0346E0B695A79597
:1006A000979587954A95D1F722C00097A10521E03B
:1006B000B20740F424E020935B03892F9A2FAB2FDD
:1006C000BB2715C00097A10524E0B20758F425E028
:1006D00020935B032AE0B695A795979587952A9571
:1006E000D1F705C085E080935B038FEF9FEF909378
:1006F0005D0380935C0380915C0390915D03909314
:1007000087008093860080915B03806180938100E5
:10071000089560E08AE00E943D0B61E08DE00E9458
:100720003D0B44E068E286E393E00E94B70962E390
:1007300086E393E00E945A0986E393E00E947109E0
:10074000E1E8F0E080E180831092800083E0809314
:100750005B0384E294EF90935D0380935C0390933A
:1007600087008093860083E1808387E093E0909305
:100770000B0180930A0181E080936F00089561E08E
:1007800070E080E090E00C94B10AEF920F9378E073
:10079000E72E0AE025E044E063E086E393E00E9470
:1007A000BE080F91EF90089508951F920F920FB613
:1007B0000F9211242F933F934F935F936F937F93E7
:1007C0008F939F93AF93BF93EF93FF93E0910A01B1
:1007D000F0910B010995FF91EF91BF91AF919F911E
:1007E0008F917F916F915F914F913F912F910F90DA
:1007F0000FBE0F901F901895CF93CFB7F8948091AC
:100800005E03811127C0EAE9F5E08491E6E8F5E0AE
:100810009491E82FF0E0EE0FFF1FE255FA4FA591FB
:10082000B4918C91892321F461E08AE00E94760BD7
:1008300061E08AE00E943D0B8CB580618CBD8CB577
:1008400080648CBD61E08DE00E943D0B61E08BE037
:100850000E943D0B80915E038F5F80935E03CFBF4C
:10086000CF9108952F923F924F925F926F927F9215
:100870008F929F92AF92BF92CF92DF92EF92FF92B0
:100880000F931F93CF93DF9300D000D0CDB7DEB787
:100890004C017C836B836A015901C8018701AC015B
:1008A0004C195D0957FF03C05195419551099501B8
:1008B0006B817C81261B370B37FF03C03195219557
:1008C000310922242394312C2417350714F0212CCC
:1008D000312C2114310459F03A2D2B2D5C01832F3A
:1008E000922F3B812C81DC82CB82C32ED22EAB8116
:1008F000BC81AA16BB065CF43C2D2D2D6C01832F08
:10090000922F3B812C81BC82AB82A32EB22E25017B
:10091000EB81FC814E1A5F0A3C016C187D0877FE62
:1009200003C0719461947108720157FE03C0FFEF18
:10093000EF1AFF0AF594E794C816D9062CF421E0C3
:1009400030E03A83298324C06FEF7FEF7A83698395
:100950001FC0D401ED91FC910480F581E02D980138
:1009600021143104D9F04B815C81B601C401099591
:10097000E618F708F7FE06C0E981FA81CE0EDF1E01
:10098000E40CF51C2B813C812F5F3F4F3C832B8374
:100990006B817C81A616B706E4F604C0A6016B81C4
:1009A0007C81E4CF0F900F900F900F90DF91CF914B
:1009B0001F910F91FF90EF90DF90CF90BF90AF907D
:1009C0009F908F907F906F905F904F903F902F906F
:1009D00008956F927F928F929F92AF92BF92CF9223
:1009E000DF92EF92FF920F931F93CF93DF93EC016F
:1009F0005B016A0139014801E881F9810284F385CC
:100A0000E02D87010995E881F981A601480D591D5E
:100A1000415051090284F385E02D9301B501CE01C7
:100A20000995E881F9810084F185E02D9401A60102
:100A3000B501CE010995E881F981B501660D771DF3
:100A4000615071090084F185E02D9401A601CE0169
:100A50000995DF91CF911F910F91FF90EF90DF905B
:100A6000CF90BF90AF909F908F907F906F900895A0
:100A7000EF92FF920F931F93DC01ED91FC91240FF5
:100A8000351F215031090680F781E02D7801890159
:100A90009B0109951F910F91FF90EF900895EF92A0
:100AA000FF920F931F93DC01ED91FC91260F371FEE
:100AB000215031090680F781E02D78018A010995DE
:100AC0001F910F91FF90EF9008956F927F928F92F8
:100AD0009F92AF92BF92CF92DF92EF92FF920F93CD
:100AE0001F93CF93DF935C014A0169013801EB0149
:100AF000C60ED71ECC15DD0574F4D501ED91FC9121
:100B00000084F185E02D87019301A401BE01C50198
:100B100009952196EFCFDF91CF911F910F91FF9013
:100B2000EF90DF90CF90BF90AF909F908F907F908D
:100B30006F900895EF92FF920F931F93DC01ED9158
:100B4000FC9111971A960D911C911B9718962D9157
:100B50003C9119970684F785E02D7B0140E050E039
:100B600060E070E009951F910F91FF90EF9008955C
:100B70000895FC011382128288E093E091838083C0
:100B80007583648357834683718760875387428761
:100B9000158A158614861786168621E0248B8FEF1A
:100BA0009FEF938B828B918B808B268B178A118E74
:100BB000108E08952F923F924F925F926F927F9284
:100BC0008F929F92AF92BF92CF92DF92EF92FF925D
:100BD0000F931F93CF93DF93CDB7DEB76A970FB60E
:100BE000F894DEBF0FBECDBF1C0158874F831C8712
:100BF0000B87FA86E986CC82DC0158964D915C9190
:100C000059974115510509F0A6C018968D919C91F0
:100C10001997681779070CF056C11A968D919C9117
:100C20001B97EF81F885E817F9070CF04CC1D12C20
:100C3000CB013C81F6E03F9F800D911D11241816D9
:100C400019060CF040C1C60103E0880F991F0A95F0
:100C5000E1F74F815885840F951F181619060CF07F
:100C600032C157968C91811103C0203B08F02F5F51
:100C70007E876D874B01198218E6A12E10E0B12EF8
:100C8000A61AB70A55E0259FA00CB11C1124898132
:100C9000853039F0ED85FE85EA0DFB1D94919A8330
:100CA00001C01A826F8078842301A8E0AD83BA81E5
:100CB000B0FF12C0D101ED91FC91BC81B13031F493
:100CC0000480F581E02D2B853C8518C00684F785CE
:100CD000E02DEB84FC841DC0E985FA852B853C85DD
:100CE000E217F307E1F0D101ED91FC91BC81B13045
:100CF00059F40480F581E02D29853A85A2016D859E
:100D00007E85C10109950BC00684F785E02DE98435
:100D1000FA8486019601A301B401C1010995EA8113
:100D2000E695EA83FD81F150FD836C0C7D1C2FEF6D
:100D3000421A520AF111BBCF39813F5F39838C0CC3
:100D40009D1C4D855E854F5F5F4F5E874D873630BA
:100D500009F09DCFB8C0FA0134963491329785914D
:100D60009491231BA7E02A9F800D911D1124FA0165
:100D700025913491398B288BFC01459154915A8FE0
:100D8000498FFC013296549159873196A491AF87CF
:100D90003196E491FC013596249131968491BC8181
:100DA000B23050F0622E772467FC7094E82FFF2752
:100DB000E7FDF095FE87ED87FC81CF2ED12C6C9C52
:100DC00040016D9C900C7C9C900C1124860E971E0B
:100DD000A12C1982DE8ACD8AAB01420F511D27FD5D
:100DE0005A955E834D83AF81B885A80FB11D87FDED
:100DF000BA95B88FAF8B59818F85581708F063C0AB
:100E0000852F90E02D853E85280F391F2C9DD00120
:100E10002D9DB00D3C9DB00D1124EF81F885EA0F9A
:100E2000FB1FFB83EA836D807E802401FA2D2D81D8
:100E3000F21BFA8B4F89588D480F591F5C8B4B8BD7
:100E40009A89960D862D2D81821B39858317B0F5E1
:100E5000977061F4898D9A8D0196E889F989298DB9
:100E60003A8DE20FF31FB4909A8F898FB7FE1DC0A1
:100E7000D101ED91FC91BC81B13059F40480F58130
:100E8000E02D2B853C854B895C89B301C101099517
:100E90000CC00684F785E02DEB84FC848601960166
:100EA0004A815B81B201C1010995BB0CED89FE89C4
:100EB0004E0E5F1EFFEF6F1A7F0AC2CFA30E49814D
:100EC0004F5F498398CF6A960FB6F894DEBF0FBE86
:100ED000CDBFDF91CF911F910F91FF90EF90DF90E9
:100EE000CF90BF90AF909F908F907F906F905F90CA
:100EF0004F903F902F900895AF92BF92CF92EF9274
:100F0000FF920F931F93CF93DF93EC01262F888DD1
:100F1000998D009709F042C06A3069F42C898E855A
:100F20009F8538E0239F800D911D11249F878E8718
:100F30001D861C86ABC06D3009F4A8C08E8988233D
:100F4000C1F03C898C859D8546E0349F800D911DC4
:100F5000112448855985841795075CF01D861C86E9
:100F60008E859F85E8E03E9F800D911D11249F870F
:100F70008E87EA88FB88088919894E855F856C858C
:100F80007D85CC88CE010E94DA052C898C859D85D3
:100F9000F6E02F9F800D911D112441C06A3079F435
:100FA0001D861C864C89FC01369684912E853F85D2
:100FB000489F200D311D11243F872E8767C06D305B
:100FC00009F464C0AC014C5F5F4FFA0134916317C0
:100FD00008F45CC03196E491E61708F457C0FA01B2
:100FE0004491362F341BFC013296A590B490F7E063
:100FF0003F9FA00CB11C1124F5013296A4913196AB
:10100000E491AA2311F0E1110DC0F5013496A490EA
:101010002C898C859D85A29E800D911D11249D8714
:101020008C8734C0F5013596E4913E89332309F16C
:101030003C89B0E0AE0FB11DE7FDBA953A9FA00123
:101040003B9F500D11246C857D85460F571F688589
:101050007985461757076CF01D861C86FC0136966D
:1010600084914E855F85389F400D511D11245F8707
:101070004E87EA88FB88088919894E855F856C85CB
:101080007D85CC88CE010E94DA05BFCF81E090E05B
:10109000DF91CF911F910F91FF90EF90CF90BF9074
:1010A000AF900895FC0177FD68C080859185681731
:1010B00079070CF062C057FD60C0828593854817A0
:1010C00059070CF05AC08589823059F08330B1F04D
:1010D0008130D1F48FE290E0861B970BBA01AC010E
:1010E00013C083E590E0FC01E61BF70BBF018FE224
:1010F00090E0FC01E41BF50BAF0106C083E590E036
:10110000841B950BAB01BC0164357105B0F5403310
:10111000510598F5CA01E3E095958795EA95E1F7C1
:1011200047705527232BA1F024E5289FF001299F24
:10113000F00D1124E60FF71FE45FFE4F81E090E011
:10114000042E01C0880F0A94EAF79081982B14C0EE
:1011500024E5289FF001299FF00D1124E60FF71FC9
:10116000E45FFE4F81E090E0042E01C0880F0A94F6
:10117000EAF780959081982390830895CF92DF922B
:10118000EF92FF920F931F93CF93DF931F92CDB7F0
:10119000DEB76C01162FF42E40E350E064E570E0FA
:1011A00029830E94B90580E293E0F6019183808350
:1011B000F28E138F2981248FE58E068F0F90DF9199
:1011C000CF911F910F91FF90EF90DF90CF900895F6
:1011D000FC01828D8F3F21F481E0938D9F3F09F0C8
:1011E00080E008950F931F93CF93DF931F92CDB7A5
:1011F000DEB78C0169830E94E8086981882339F091
:101200006EBD00000DB407FEFDCF8EB52DC088E089
:1012100090E030E8D8019196ED91FC919297408151
:1012200094962C9194972095242320835F96ED919A
:10123000FC91909793962C91432F462321F0408167
:10124000422B408304C04081209524232083D80171
:101250009196ED91FC919297208194964C91242B3C
:10126000208336950197B1F60F90DF91CF911F91B2
:101270000F9108951F93CF93DF93EC01162F60E039
:101280008C8D0E94760B8E8D18161CF460E00E94E7
:10129000760B612FCE010E94F2088E8D181634F461
:1012A00061E0DF91CF911F910C94760BDF91CF918C
:1012B0001F9108951F93CF93DF93EC01162F67FDC5
:1012C0001FE761E2CE010E943A09612F6068CE01FA
:1012D0000E943A0960E2CE01DF91CF911F910C94F8
:1012E0003A09DF92EF92FF920F931F93CF93DF9310
:1012F000EC01FCE0EF2EF1E0FF2ED12C6D2D6064AF
:10130000CE010E943A0960E8CE010E943A0961E0EC
:101310008C8D0E94760B8E8D18161CF460E00E9456
:10132000760B00E010E0F701E00FF11F6081CE01C5
:101330000E94F2080F5F1F4F04351105A1F78E8D33
:1013400018161CF461E00E94760BD39484E5E80E35
:10135000F11C86E0D812D2CF60E4CE01DF91CF91AC
:101360001F910F91FF90EF90DF900C943A090F932B
:101370001F93CF93DF93EC01162F042F0E94E808F0
:10138000882379F00E94FC038CB58C7F8CBD8DB5D1
:101390008E7F8DBD8CB5837F8CBD8CB58F7D8CBDD4
:1013A00034C061E08A8D0E943D0B61E08B8D0E940C
:1013B0003D0B8B8D992787FD9095FC01E057FA4FE7
:1013C000E491F0E0EE0FFF1FEC55FA4F25913491B8
:1013D0003AA329A3FC01E458FA4F84918CA38A8D87
:1013E000992787FD9095FC01E057FA4FE491F0E0D2
:1013F000EE0FFF1FEC55FA4F2591349138A32F8F34
:10140000FC01E458FA4F84918BA361E08C8D0E941B
:101410003D0B8D8D18161CF461E00E943D0B8E8DE6
:1014200018161CF461E00E943D0B8D8D18166CF4AB
:1014300060E00E94760B64EF71E080E090E00E9433
:10144000B10A61E08D8D0E94760B61E2CE010E94AF
:101450003A09602F6061CE010E943A0917FD1FE72B
:10146000612F6068CE010E943A0960E2CE010E94BD
:101470003A096CE0CE010E943A09CE01DF91CF918A
:101480001F910F910C9471091F920F920FB60F923A
:1014900011242F933F938F939F93AF93BF9380918A
:1014A000600390916103A0916203B0916303309156
:1014B0005F0326E0230F2D3720F40296A11DB11DF6
:1014C00005C029E8230F0396A11DB11D20935F03DA
:1014D0008093600390936103A0936203B0936303CE
:1014E0008091640390916503A0916603B0916703B6
:1014F0000196A11DB11D8093640390936503A09391
:101500006603B0936703BF91AF919F918F913F9115
:101510002F910F900FBE0F901F9018953FB7F89422
:101520008091640390916503A0916603B091670375
:1015300026B5A89B05C02F3F19F00196A11DB11D2E
:101540003FBF6627782F892F9A2F620F711D811D4B
:10155000911D43E0660F771F881F991F4A95D1F7A9
:101560000895CF92DF92EF92FF92CF93DF936B01BA
:101570007C010E948E0AEB01C114D104E104F10444
:1015800089F00E94E60B0E948E0A6C1B7D0B683E60
:10159000734090F381E0C81AD108E108F108C851FE
:1015A000DC4FEACFDF91CF91FF90EF90DF90CF90AB
:1015B0000895789484B5826084BD84B5816084BDCB
:1015C00085B5826085BD85B5816085BDEEE6F0E0BC
:1015D000808181608083E1E8F0E010828081826018
:1015E0008083808181608083E0E8F0E08081816099
:1015F0008083E1EBF0E0808184608083E0EBF0E0C9
:10160000808181608083EAE7F0E08081846080836C
:1016100080818260808380818E7F808380818068EA
:1016200080831092C1000895833081F028F48130C6
:1016300099F08230A1F008958730A9F08830B9F090
:101640008430D1F4809180008F7D03C08091800030
:101650008F7780938000089584B58F7702C084B51A
:101660008F7D84BD08958091B0008F7703C08091F5
:10167000B0008F7D8093B0000895CF93DF9390E00A
:10168000FC01E458FA4F2491FC01E057FA4F849191
:10169000882349F190E0880F991FFC01E255FA4F29
:1016A000A591B4918C559A4FFC01C591D4919FB7E7
:1016B000611108C0F8948C91209582238C938881C5
:1016C00082230AC0623051F4F8948C91322F309505
:1016D00083238C938881822B888304C0F8948C9117
:1016E000822B8C939FBFDF91CF9108950F931F930F
:1016F000CF93DF931F92CDB7DEB7282F30E0F901EB
:10170000E859FA4F8491F901E458FA4F1491F9011C
:10171000E057FA4F04910023C9F0882321F0698330
:101720000E94140B6981E02FF0E0EE0FFF1FEC55D3
:10173000FA4FA591B4919FB7F8948C91611103C0B1
:101740001095812301C0812B8C939FBF0F90DF9157
:10175000CF911F910F910895CF92DF92EF92FF9258
:101760000F931F93CF93DF936C017A01EB01E60E89
:10177000F71E00E010E0CE15DF0561F06991D6019B
:10178000ED91FC910190F081E02DC6010995080FC3
:10179000191FF1CFC801DF91CF911F910F91FF90D9
:1017A000EF90DF90CF90089508950E94D90A0E948B
:1017B000D40B0E948903C0E0D0E00E94BF032097B1
:1017C000E1F30E940000F9CF0E94ED0B0895EE0FA7
:1017D000FF1F0590F491E02D099481E090E0F894CA
:0817E0000C94F20BF894FFCF0A
:1017E800000068038000A0860100D4030000000008
:1017F80000000000000000000000000000000000E1
:1018080000000000000000000000000000000000D0
:101818000000C0E0F0F8FCFCFEFFFCE00000000067
:1018280000000000000000000000000000000000B0
:1018380000000000000000000000000000000000A0
:101848000000000000000000000000000000000090
:1018580000F8F8F8F8F8F8F8F8F8F8F8F8F0F0E020
:10186800E0C080C0FCFFFFFFFF7F3F7FFFFFFFFF5F
:10187800FF00000000000000000000000000000061
:101888000000000000000000000000000000000050
:101898000000000000000000000000000000000040
:1018A8000000000000000F1F3F7FFFFFFFFFFFFF4A
:1018B800FFFFE7C7C7878F9F9FFFFFFFC1C0E0FCFF
:1018C800FFFFFFFFFFFCFCFCFCFEFEFEFCFCF8F843
:1018D800F0E0C0C0000000000000000000000000B0
:1018E80000000000000000000000000000000000F0
:1018F8000000000000000000000000000080C0E0C0
:10190800F1FBFFFFFFFFFF7F1F0F0F87E7FFFFFFC1
:101918001F1F3FF9F8F8F8F8F8F8FDFFFFFFFFFF81
:10192800FFFFFFFF7F3F0F070100000000000000DE
:10193800000000000000000000000000000000009F
:10194800000000000000000000000000000000F09F
:10195800FEFFFFFFFFFFFFFFFFFFFFFE7E3F3F0F82
:101968001FFFFFFFFCF0E0F1FFFFFFFFFFFCF001AE
:101978000101010101010100000000000000000058
:10198800000000000000000000000000000000004F
:10199800000000000000000000000000000000003F
:1019A8000000000303030303030303010101010013
:1019B800000000000000030F1F3F7F7FFFFFFFFFB5
:1019C8007F7F1F03000000000000000000000000EF
:1019D80000000000000000000000000000000000FF
:1019E80000000000000000007C07AC0BE40B320490
:1019F80038054F05E90465059A05B805000000009B
:101A08007C07AC0B5208320438054F05E90465051C
:041A18009A05B8056E
:00000001FF
